{
  "contractName": "Voting",
  "abi": [
    {
      "inputs": [],
      "stateMutability": "nonpayable",
      "type": "constructor"
    },
    {
      "anonymous": false,
      "inputs": [
        {
          "indexed": true,
          "internalType": "uint256",
          "name": "candidateId",
          "type": "uint256"
        }
      ],
      "name": "votedEvent",
      "type": "event"
    },
    {
      "inputs": [],
      "name": "candidateCount",
      "outputs": [
        {
          "internalType": "uint256",
          "name": "",
          "type": "uint256"
        }
      ],
      "stateMutability": "view",
      "type": "function",
      "constant": true
    },
    {
      "inputs": [
        {
          "internalType": "uint256",
          "name": "",
          "type": "uint256"
        }
      ],
      "name": "candidates",
      "outputs": [
        {
          "internalType": "uint256",
          "name": "id",
          "type": "uint256"
        },
        {
          "internalType": "string",
          "name": "name",
          "type": "string"
        },
        {
          "internalType": "uint256",
          "name": "voteCount",
          "type": "uint256"
        }
      ],
      "stateMutability": "view",
      "type": "function",
      "constant": true
    },
    {
      "inputs": [],
      "name": "voterCount",
      "outputs": [
        {
          "internalType": "uint256",
          "name": "",
          "type": "uint256"
        }
      ],
      "stateMutability": "view",
      "type": "function",
      "constant": true
    },
    {
      "inputs": [
        {
          "internalType": "uint256",
          "name": "",
          "type": "uint256"
        }
      ],
      "name": "voters",
      "outputs": [
        {
          "internalType": "uint256",
          "name": "nationalId",
          "type": "uint256"
        },
        {
          "internalType": "uint256",
          "name": "phoneNumber",
          "type": "uint256"
        },
        {
          "internalType": "bool",
          "name": "hasVoted",
          "type": "bool"
        }
      ],
      "stateMutability": "view",
      "type": "function",
      "constant": true
    },
    {
      "inputs": [
        {
          "internalType": "uint256",
          "name": "_nationalId",
          "type": "uint256"
        },
        {
          "internalType": "uint256",
          "name": "_phoneNumber",
          "type": "uint256"
        }
      ],
      "name": "authenticateVoter",
      "outputs": [],
      "stateMutability": "nonpayable",
      "type": "function"
    },
    {
      "inputs": [
        {
          "internalType": "uint256",
          "name": "_candidateId",
          "type": "uint256"
        },
        {
          "internalType": "uint256",
          "name": "_voterId",
          "type": "uint256"
        }
      ],
      "name": "vote",
      "outputs": [],
      "stateMutability": "nonpayable",
      "type": "function"
    },
    {
      "inputs": [],
      "name": "getCandidates",
      "outputs": [
        {
          "components": [
            {
              "internalType": "uint256",
              "name": "id",
              "type": "uint256"
            },
            {
              "internalType": "string",
              "name": "name",
              "type": "string"
            },
            {
              "internalType": "uint256",
              "name": "voteCount",
              "type": "uint256"
            }
          ],
          "internalType": "struct Voting.Candidate[]",
          "name": "",
          "type": "tuple[]"
        }
      ],
      "stateMutability": "view",
      "type": "function",
      "constant": true
    },
    {
      "inputs": [],
      "name": "getWinner",
      "outputs": [
        {
          "internalType": "string",
          "name": "",
          "type": "string"
        }
      ],
      "stateMutability": "view",
      "type": "function",
      "constant": true
    }
  ],
  "bytecode": "0x60806040523480156200001157600080fd5b50620000586040518060400160405280600381526020017f616c690000000000000000000000000000000000000000000000000000000000815250620000ea60201b60201c565b6200009e6040518060400160405280600581526020017f7368697661000000000000000000000000000000000000000000000000000000815250620000ea60201b60201c565b620000e46040518060400160405280600481526020017f7361626100000000000000000000000000000000000000000000000000000000815250620000ea60201b60201c565b62000546565b60026000815480929190620000ff90620001a2565b91905055506040518060600160405280600254815260200182815260200160008152506001600060025481526020019081526020016000206000820151816000015560208201518160010190816200015891906200045f565b506040820151816002015590505050565b7f4e487b7100000000000000000000000000000000000000000000000000000000600052601160045260246000fd5b6000819050919050565b6000620001af8262000198565b91507fffffffffffffffffffffffffffffffffffffffffffffffffffffffffffffffff8203620001e457620001e362000169565b5b600182019050919050565b600081519050919050565b7f4e487b7100000000000000000000000000000000000000000000000000000000600052604160045260246000fd5b7f4e487b7100000000000000000000000000000000000000000000000000000000600052602260045260246000fd5b600060028204905060018216806200027157607f821691505b60208210810362000287576200028662000229565b5b50919050565b60008190508160005260206000209050919050565b60006020601f8301049050919050565b600082821b905092915050565b600060088302620002f17fffffffffffffffffffffffffffffffffffffffffffffffffffffffffffffffff82620002b2565b620002fd8683620002b2565b95508019841693508086168417925050509392505050565b6000819050919050565b6000620003406200033a620003348462000198565b62000315565b62000198565b9050919050565b6000819050919050565b6200035c836200031f565b620003746200036b8262000347565b848454620002bf565b825550505050565b600090565b6200038b6200037c565b6200039881848462000351565b505050565b5b81811015620003c057620003b460008262000381565b6001810190506200039e565b5050565b601f8211156200040f57620003d9816200028d565b620003e484620002a2565b81016020851015620003f4578190505b6200040c6200040385620002a2565b8301826200039d565b50505b505050565b600082821c905092915050565b6000620004346000198460080262000414565b1980831691505092915050565b60006200044f838362000421565b9150826002028217905092915050565b6200046a82620001ef565b67ffffffffffffffff811115620004865762000485620001fa565b5b62000492825462000258565b6200049f828285620003c4565b600060209050601f831160018114620004d75760008415620004c2578287015190505b620004ce858262000441565b8655506200053e565b601f198416620004e7866200028d565b60005b828110156200051157848901518255600182019150602085019450602081019050620004ea565b868310156200053157848901516200052d601f89168262000421565b8355505b6001600288020188555050505b505050505050565b610d1180620005566000396000f3fe608060405234801561001057600080fd5b50600436106100885760003560e01c8063a6073e3f1161005b578063a6073e3f14610119578063a9a981a314610135578063b384abef14610153578063da58c7d91461016f57610088565b806306a49fce1461008d5780633477ee2e146100ab57806342169e48146100dd5780638e7ea5b2146100fb575b600080fd5b6100956101a1565b6040516100a291906108b4565b60405180910390f35b6100c560048036038101906100c09190610907565b610316565b6040516100d49392919061098d565b60405180910390f35b6100e56103c8565b6040516100f291906109cb565b60405180910390f35b6101036103ce565b60405161011091906109e6565b60405180910390f35b610133600480360381019061012e9190610a08565b6104d7565b005b61013d61055c565b60405161014a91906109cb565b60405180910390f35b61016d60048036038101906101689190610a08565b610562565b005b61018960048036038101906101849190610907565b6106a1565b60405161019893929190610a63565b60405180910390f35b6060600060025467ffffffffffffffff8111156101c1576101c0610a9a565b5b6040519080825280602002602001820160405280156101fa57816020015b6101e76106d8565b8152602001906001900390816101df5790505b5090506000600190505b600254811161030e57600160008281526020019081526020016000206040518060600160405290816000820154815260200160018201805461024590610af8565b80601f016020809104026020016040519081016040528092919081815260200182805461027190610af8565b80156102be5780601f10610293576101008083540402835291602001916102be565b820191906000526020600020905b8154815290600101906020018083116102a157829003601f168201915b50505050508152602001600282015481525050826001836102df9190610b58565b815181106102f0576102ef610b8c565b5b6020026020010181905250808061030690610bbb565b915050610204565b508091505090565b600160205280600052604060002060009150905080600001549080600101805461033f90610af8565b80601f016020809104026020016040519081016040528092919081815260200182805461036b90610af8565b80156103b85780601f1061038d576101008083540402835291602001916103b8565b820191906000526020600020905b81548152906001019060200180831161039b57829003601f168201915b5050505050908060020154905083565b60035481565b606060008080600190505b600254811161043057826001600083815260200190815260200160002060020154111561041d57600160008281526020019081526020016000206002015492508091505b808061042890610bbb565b9150506103d9565b5060016000828152602001908152602001600020600101805461045290610af8565b80601f016020809104026020016040519081016040528092919081815260200182805461047e90610af8565b80156104cb5780601f106104a0576101008083540402835291602001916104cb565b820191906000526020600020905b8154815290600101906020018083116104ae57829003601f168201915b50505050509250505090565b600360008154809291906104ea90610bbb565b91905055506040518060600160405280838152602001828152602001600015158152506000806003548152602001908152602001600020600082015181600001556020820151816001015560408201518160020160006101000a81548160ff0219169083151502179055509050505050565b60025481565b60008082815260200190815260200160002060020160009054906101000a900460ff16156105c5576040517f08c379a00000000000000000000000000000000000000000000000000000000081526004016105bc90610c4f565b60405180910390fd5b6000821180156105d757506002548211155b610616576040517f08c379a000000000000000000000000000000000000000000000000000000000815260040161060d90610cbb565b60405180910390fd5b600160008083815260200190815260200160002060020160006101000a81548160ff02191690831515021790555060016000838152602001908152602001600020600201600081548092919061066b90610bbb565b9190505550817ffff3c900d938d21d0990d786e819f29b8d05c1ef587b462b939609625b684b1660405160405180910390a25050565b60006020528060005260406000206000915090508060000154908060010154908060020160009054906101000a900460ff16905083565b60405180606001604052806000815260200160608152602001600081525090565b600081519050919050565b600082825260208201905092915050565b6000819050602082019050919050565b6000819050919050565b61073881610725565b82525050565b600081519050919050565b600082825260208201905092915050565b60005b8381101561077857808201518184015260208101905061075d565b60008484015250505050565b6000601f19601f8301169050919050565b60006107a08261073e565b6107aa8185610749565b93506107ba81856020860161075a565b6107c381610784565b840191505092915050565b60006060830160008301516107e6600086018261072f565b50602083015184820360208601526107fe8282610795565b9150506040830151610813604086018261072f565b508091505092915050565b600061082a83836107ce565b905092915050565b6000602082019050919050565b600061084a826106f9565b6108548185610704565b93508360208202850161086685610715565b8060005b858110156108a25784840389528151610883858261081e565b945061088e83610832565b925060208a0199505060018101905061086a565b50829750879550505050505092915050565b600060208201905081810360008301526108ce818461083f565b905092915050565b600080fd5b6108e481610725565b81146108ef57600080fd5b50565b600081359050610901816108db565b92915050565b60006020828403121561091d5761091c6108d6565b5b600061092b848285016108f2565b91505092915050565b61093d81610725565b82525050565b600082825260208201905092915050565b600061095f8261073e565b6109698185610943565b935061097981856020860161075a565b61098281610784565b840191505092915050565b60006060820190506109a26000830186610934565b81810360208301526109b48185610954565b90506109c36040830184610934565b949350505050565b60006020820190506109e06000830184610934565b92915050565b60006020820190508181036000830152610a008184610954565b905092915050565b60008060408385031215610a1f57610a1e6108d6565b5b6000610a2d858286016108f2565b9250506020610a3e858286016108f2565b9150509250929050565b60008115159050919050565b610a5d81610a48565b82525050565b6000606082019050610a786000830186610934565b610a856020830185610934565b610a926040830184610a54565b949350505050565b7f4e487b7100000000000000000000000000000000000000000000000000000000600052604160045260246000fd5b7f4e487b7100000000000000000000000000000000000000000000000000000000600052602260045260246000fd5b60006002820490506001821680610b1057607f821691505b602082108103610b2357610b22610ac9565b5b50919050565b7f4e487b7100000000000000000000000000000000000000000000000000000000600052601160045260246000fd5b6000610b6382610725565b9150610b6e83610725565b9250828203905081811115610b8657610b85610b29565b5b92915050565b7f4e487b7100000000000000000000000000000000000000000000000000000000600052603260045260246000fd5b6000610bc682610725565b91507fffffffffffffffffffffffffffffffffffffffffffffffffffffffffffffffff8203610bf857610bf7610b29565b5b600182019050919050565b7f796f752063616e7420766f7465206265637561736520796f7520766f74656400600082015250565b6000610c39601f83610943565b9150610c4482610c03565b602082019050919050565b60006020820190508181036000830152610c6881610c2c565b9050919050565b7f696e76616c69642063616e646964617465000000000000000000000000000000600082015250565b6000610ca5601183610943565b9150610cb082610c6f565b602082019050919050565b60006020820190508181036000830152610cd481610c98565b905091905056fea264697066735822122066ad0015748b2844159376997b3fac923961b4f62698f388240424ecca4a23ec64736f6c63430008130033",
  "immutableReferences": {},
  "source": "// SPDX-License-Identifier: UNLICENSED\r\npragma solidity ^0.8.0;\r\n\r\ncontract Voting {\r\n\r\n    struct Voter {\r\n        uint nationalId;\r\n        uint phoneNumber;\r\n        bool hasVoted;\r\n    }\r\n\r\n    struct Candidate {\r\n        uint id;\r\n        string name;\r\n        uint voteCount;\r\n    }\r\n\r\n    mapping(uint => Voter) public voters;\r\n    mapping(uint => Candidate) public candidates;\r\n\r\n    uint public candidateCount;\r\n    uint public voterCount;\r\n\r\n    event votedEvent(uint indexed candidateId);\r\n\r\n    constructor() {\r\n        addCandidate(\"ali\");\r\n        addCandidate(\"shiva\");\r\n        addCandidate(\"saba\");\r\n    }\r\n\r\n    function addCandidate(string memory _name) private {\r\n        candidateCount++;\r\n        candidates[candidateCount] = Candidate(candidateCount, _name, 0);\r\n    }\r\n\r\n    function authenticateVoter(uint _nationalId, uint _phoneNumber) public {\r\n        voterCount++;\r\n        voters[voterCount] = Voter(_nationalId, _phoneNumber, false);\r\n    }\r\n\r\n    function vote(uint _candidateId, uint _voterId) public {\r\n        require(!voters[_voterId].hasVoted, \"you cant vote becuase you voted\");\r\n        require(_candidateId > 0 && _candidateId <= candidateCount, \"invalid candidate\");\r\n\r\n        voters[_voterId].hasVoted = true;\r\n        candidates[_candidateId].voteCount++;\r\n\r\n        emit votedEvent(_candidateId);\r\n    }\r\n\r\n    function getCandidates() public view returns (Candidate[] memory) {\r\n        Candidate[] memory _candidates = new Candidate[](candidateCount);\r\n        for (uint i = 1; i <= candidateCount; i++) {\r\n            _candidates[i - 1] = candidates[i];\r\n        }\r\n        return _candidates;\r\n    }\r\n\r\n    function getWinner() public view returns (string memory) {\r\n        uint maxVotes = 0;\r\n        uint winnerId;\r\n\r\n        for (uint i = 1; i <= candidateCount; i++) {\r\n            if (candidates[i].voteCount > maxVotes) {\r\n                maxVotes = candidates[i].voteCount;\r\n                winnerId = i;\r\n            }\r\n        }\r\n\r\n        return candidates[winnerId].name;\r\n    }\r\n}",
  "sourcePath": "C:\\Users\\Rayan\\Desktop\\pr\\contracts\\vote.sol",
  "compiler": {
    "name": "solc",
    "version": "0.8.19+commit.7dd6d404.Emscripten.clang"
  },
  "schemaVersion": "3.4.13",
  "updatedAt": "2023-06-30T14:53:13.863Z",
  "networkType": "ethereum",
  "devdoc": {
    "kind": "dev",
    "methods": {},
    "version": 1
  },
  "userdoc": {
    "kind": "user",
    "methods": {},
    "version": 1
  }
}